{
  "_format": "hh-sol-artifact-1",
  "contractName": "NonCompetitiveGameA",
  "sourceName": "contracts/NonCompetitiveGameA.sol",
  "abi": [
    {
      "inputs": [
        {
          "internalType": "address",
          "name": "_Vault",
          "type": "address"
        }
      ],
      "stateMutability": "nonpayable",
      "type": "constructor"
    },
    {
      "anonymous": false,
      "inputs": [
        {
          "indexed": true,
          "internalType": "address",
          "name": "previousOwner",
          "type": "address"
        },
        {
          "indexed": true,
          "internalType": "address",
          "name": "newOwner",
          "type": "address"
        }
      ],
      "name": "OwnershipTransferred",
      "type": "event"
    },
    {
      "anonymous": false,
      "inputs": [
        {
          "indexed": false,
          "internalType": "uint256",
          "name": "playID",
          "type": "uint256"
        },
        {
          "indexed": false,
          "internalType": "uint256",
          "name": "amount",
          "type": "uint256"
        },
        {
          "indexed": false,
          "internalType": "address",
          "name": "player",
          "type": "address"
        },
        {
          "indexed": false,
          "internalType": "uint256",
          "name": "time",
          "type": "uint256"
        }
      ],
      "name": "joingame",
      "type": "event"
    },
    {
      "anonymous": false,
      "inputs": [
        {
          "indexed": false,
          "internalType": "address",
          "name": "winner",
          "type": "address"
        },
        {
          "indexed": false,
          "internalType": "uint256",
          "name": "amount",
          "type": "uint256"
        }
      ],
      "name": "playerclaimback",
      "type": "event"
    },
    {
      "anonymous": false,
      "inputs": [
        {
          "indexed": false,
          "internalType": "address",
          "name": "winner",
          "type": "address"
        },
        {
          "indexed": false,
          "internalType": "uint256",
          "name": "amount",
          "type": "uint256"
        }
      ],
      "name": "winnerclaim",
      "type": "event"
    },
    {
      "inputs": [],
      "name": "Vault",
      "outputs": [
        {
          "internalType": "contract Vault_Interface",
          "name": "",
          "type": "address"
        }
      ],
      "stateMutability": "view",
      "type": "function"
    },
    {
      "inputs": [
        {
          "internalType": "uint256",
          "name": "",
          "type": "uint256"
        }
      ],
      "name": "gamePlayID",
      "outputs": [
        {
          "internalType": "uint256",
          "name": "amount",
          "type": "uint256"
        },
        {
          "internalType": "bool",
          "name": "claimed",
          "type": "bool"
        },
        {
          "internalType": "address",
          "name": "player",
          "type": "address"
        }
      ],
      "stateMutability": "view",
      "type": "function"
    },
    {
      "inputs": [
        {
          "internalType": "uint256",
          "name": "_amt",
          "type": "uint256"
        },
        {
          "internalType": "uint256",
          "name": "_id",
          "type": "uint256"
        }
      ],
      "name": "joinGame",
      "outputs": [],
      "stateMutability": "nonpayable",
      "type": "function"
    },
    {
      "inputs": [],
      "name": "owner",
      "outputs": [
        {
          "internalType": "address",
          "name": "",
          "type": "address"
        }
      ],
      "stateMutability": "view",
      "type": "function"
    },
    {
      "inputs": [
        {
          "internalType": "uint256",
          "name": "_id",
          "type": "uint256"
        },
        {
          "internalType": "bytes",
          "name": "_signature",
          "type": "bytes"
        },
        {
          "internalType": "bytes32",
          "name": "_messageHash",
          "type": "bytes32"
        }
      ],
      "name": "playerClaimBack",
      "outputs": [],
      "stateMutability": "nonpayable",
      "type": "function"
    },
    {
      "inputs": [],
      "name": "renounceOwnership",
      "outputs": [],
      "stateMutability": "nonpayable",
      "type": "function"
    },
    {
      "inputs": [
        {
          "internalType": "address",
          "name": "_a",
          "type": "address"
        }
      ],
      "name": "setVerification",
      "outputs": [],
      "stateMutability": "nonpayable",
      "type": "function"
    },
    {
      "inputs": [
        {
          "internalType": "address",
          "name": "newOwner",
          "type": "address"
        }
      ],
      "name": "transferOwnership",
      "outputs": [],
      "stateMutability": "nonpayable",
      "type": "function"
    },
    {
      "inputs": [],
      "name": "verification",
      "outputs": [
        {
          "internalType": "address",
          "name": "",
          "type": "address"
        }
      ],
      "stateMutability": "view",
      "type": "function"
    },
    {
      "inputs": [],
      "name": "viewPlayersBalance",
      "outputs": [
        {
          "internalType": "uint256",
          "name": "",
          "type": "uint256"
        }
      ],
      "stateMutability": "nonpayable",
      "type": "function"
    },
    {
      "inputs": [
        {
          "internalType": "uint256",
          "name": "_id",
          "type": "uint256"
        },
        {
          "internalType": "uint256",
          "name": "_reward",
          "type": "uint256"
        },
        {
          "internalType": "bytes",
          "name": "_signature",
          "type": "bytes"
        },
        {
          "internalType": "bytes32",
          "name": "_messageHash",
          "type": "bytes32"
        }
      ],
      "name": "winnerClaim",
      "outputs": [],
      "stateMutability": "nonpayable",
      "type": "function"
    }
  ],
  "bytecode": "0x60806040523480156200001157600080fd5b5060405162001b3238038062001b32833981810160405281019062000037919062000182565b620000576200004b6200009f60201b60201c565b620000a760201b60201c565b80600160006101000a81548173ffffffffffffffffffffffffffffffffffffffff021916908373ffffffffffffffffffffffffffffffffffffffff16021790555050620001fc565b600033905090565b60008060009054906101000a900473ffffffffffffffffffffffffffffffffffffffff169050816000806101000a81548173ffffffffffffffffffffffffffffffffffffffff021916908373ffffffffffffffffffffffffffffffffffffffff1602179055508173ffffffffffffffffffffffffffffffffffffffff168173ffffffffffffffffffffffffffffffffffffffff167f8be0079c531659141344cd1fd0a4f28419497f9722a3daafe3b4186f6b6457e060405160405180910390a35050565b6000815190506200017c81620001e2565b92915050565b6000602082840312156200019557600080fd5b6000620001a5848285016200016b565b91505092915050565b6000620001bb82620001c2565b9050919050565b600073ffffffffffffffffffffffffffffffffffffffff82169050919050565b620001ed81620001ae565b8114620001f957600080fd5b50565b611926806200020c6000396000f3fe608060405234801561001057600080fd5b50600436106100a95760003560e01c8063715018a611610071578063715018a6146101405780638da5cb5b1461014a5780638ed1329a14610168578063971f8bb11461019a578063b60b9fcb146101b6578063f2fde38b146101d2576100a9565b8063257b6841146100ae5780632d2c44f2146100cc5780634ffe2a8b146100ea57806350fc7b1a14610108578063539c8a2514610124575b600080fd5b6100b66101ee565b6040516100c391906116cc565b60405180910390f35b6100d46102a2565b6040516100e191906115d1565b60405180910390f35b6100f26102c8565b6040516100ff9190611548565b60405180910390f35b610122600480360381019061011d9190611147565b6102ee565b005b61013e600480360381019061013991906111ea565b61065f565b005b6101486109c9565b005b610152610a51565b60405161015f9190611548565b60405180910390f35b610182600480360381019061017d91906110f5565b610a7a565b604051610191939291906116e7565b60405180910390f35b6101b460048036038101906101af91906110cc565b610ad1565b005b6101d060048036038101906101cb91906111ae565b610b91565b005b6101ec60048036038101906101e791906110cc565b610db4565b005b6000600160009054906101000a900473ffffffffffffffffffffffffffffffffffffffff1673ffffffffffffffffffffffffffffffffffffffff16634e33f83b336040518263ffffffff1660e01b815260040161024b9190611548565b602060405180830381600087803b15801561026557600080fd5b505af1158015610279573d6000803e3d6000fd5b505050506040513d601f19601f8201168201806040525081019061029d919061111e565b905090565b600160009054906101000a900473ffffffffffffffffffffffffffffffffffffffff1681565b600260009054906101000a900473ffffffffffffffffffffffffffffffffffffffff1681565b60008060006102fc85610eac565b925092509250600061030d85610f14565b9050600060018284878760405160008152602001604052604051610334949392919061158c565b6020604051602081039080840390855afa158015610356573d6000803e3d6000fd5b5050506020604051035190506000600360008a8152602001908152602001600020604051806060016040529081600082015481526020016001820160009054906101000a900460ff161515151581526020016001820160019054906101000a900473ffffffffffffffffffffffffffffffffffffffff1673ffffffffffffffffffffffffffffffffffffffff1673ffffffffffffffffffffffffffffffffffffffff168152505090506001151581602001511515141561044b576040517f08c379a00000000000000000000000000000000000000000000000000000000081526004016104429061162c565b60405180910390fd5b6001600360008b815260200190815260200160002060010160006101000a81548160ff021916908315150217905550600260009054906101000a900473ffffffffffffffffffffffffffffffffffffffff1673ffffffffffffffffffffffffffffffffffffffff168273ffffffffffffffffffffffffffffffffffffffff161461050a576040517f08c379a00000000000000000000000000000000000000000000000000000000081526004016105019061164c565b60405180910390fd5b3373ffffffffffffffffffffffffffffffffffffffff16816040015173ffffffffffffffffffffffffffffffffffffffff161461057c576040517f08c379a00000000000000000000000000000000000000000000000000000000081526004016105739061166c565b60405180910390fd5b600160009054906101000a900473ffffffffffffffffffffffffffffffffffffffff1673ffffffffffffffffffffffffffffffffffffffff16631698755f826040015183600001516040518363ffffffff1660e01b81526004016105e1929190611563565b600060405180830381600087803b1580156105fb57600080fd5b505af115801561060f573d6000803e3d6000fd5b505050507fc89daef3e82928c5a0891c1baeafa509bf179637c972b11ac79c14b196fcf5f18160400151826000015160405161064c929190611563565b60405180910390a1505050505050505050565b600080600061066d85610eac565b925092509250600061067e85610f14565b90506000600182848787604051600081526020016040526040516106a5949392919061158c565b6020604051602081039080840390855afa1580156106c7573d6000803e3d6000fd5b5050506020604051035190506000600360008b8152602001908152602001600020604051806060016040529081600082015481526020016001820160009054906101000a900460ff161515151581526020016001820160019054906101000a900473ffffffffffffffffffffffffffffffffffffffff1673ffffffffffffffffffffffffffffffffffffffff1673ffffffffffffffffffffffffffffffffffffffff16815250509050600115158160200151151514156107bc576040517f08c379a00000000000000000000000000000000000000000000000000000000081526004016107b39061162c565b60405180910390fd5b3373ffffffffffffffffffffffffffffffffffffffff16816040015173ffffffffffffffffffffffffffffffffffffffff161461082e576040517f08c379a00000000000000000000000000000000000000000000000000000000081526004016108259061166c565b60405180910390fd5b6001600360008c815260200190815260200160002060010160006101000a81548160ff021916908315150217905550600260009054906101000a900473ffffffffffffffffffffffffffffffffffffffff1673ffffffffffffffffffffffffffffffffffffffff168273ffffffffffffffffffffffffffffffffffffffff16146108ed576040517f08c379a00000000000000000000000000000000000000000000000000000000081526004016108e49061164c565b60405180910390fd5b600160009054906101000a900473ffffffffffffffffffffffffffffffffffffffff1673ffffffffffffffffffffffffffffffffffffffff16631698755f82604001518b6040518363ffffffff1660e01b815260040161094e929190611563565b600060405180830381600087803b15801561096857600080fd5b505af115801561097c573d6000803e3d6000fd5b505050507fac5d49a884299e9774111bb8cf86e72d324af4557250ce55e537618fbc3ffc8d81604001518a6040516109b5929190611563565b60405180910390a150505050505050505050565b6109d1610f44565b73ffffffffffffffffffffffffffffffffffffffff166109ef610a51565b73ffffffffffffffffffffffffffffffffffffffff1614610a45576040517f08c379a0000000000000000000000000000000000000000000000000000000008152600401610a3c9061168c565b60405180910390fd5b610a4f6000610f4c565b565b60008060009054906101000a900473ffffffffffffffffffffffffffffffffffffffff16905090565b60036020528060005260406000206000915090508060000154908060010160009054906101000a900460ff16908060010160019054906101000a900473ffffffffffffffffffffffffffffffffffffffff16905083565b610ad9610f44565b73ffffffffffffffffffffffffffffffffffffffff16610af7610a51565b73ffffffffffffffffffffffffffffffffffffffff1614610b4d576040517f08c379a0000000000000000000000000000000000000000000000000000000008152600401610b449061168c565b60405180910390fd5b80600260006101000a81548173ffffffffffffffffffffffffffffffffffffffff021916908373ffffffffffffffffffffffffffffffffffffffff16021790555050565b81600160009054906101000a900473ffffffffffffffffffffffffffffffffffffffff1673ffffffffffffffffffffffffffffffffffffffff16634e33f83b336040518263ffffffff1660e01b8152600401610bed9190611548565b602060405180830381600087803b158015610c0757600080fd5b505af1158015610c1b573d6000803e3d6000fd5b505050506040513d601f19601f82011682018060405250810190610c3f919061111e565b1015610c80576040517f08c379a0000000000000000000000000000000000000000000000000000000008152600401610c77906115ec565b60405180910390fd5b6000600360008381526020019081526020016000209050600160009054906101000a900473ffffffffffffffffffffffffffffffffffffffff1673ffffffffffffffffffffffffffffffffffffffff1663cd76282733856040518363ffffffff1660e01b8152600401610cf4929190611563565b600060405180830381600087803b158015610d0e57600080fd5b505af1158015610d22573d6000803e3d6000fd5b50505050338160010160016101000a81548173ffffffffffffffffffffffffffffffffffffffff021916908373ffffffffffffffffffffffffffffffffffffffff1602179055508281600001819055507f57e7187e79e8f7daae9cd3e70fcd2109629c8b9a6c095048bea752fa161f9c3482843342604051610da7949392919061171e565b60405180910390a1505050565b610dbc610f44565b73ffffffffffffffffffffffffffffffffffffffff16610dda610a51565b73ffffffffffffffffffffffffffffffffffffffff1614610e30576040517f08c379a0000000000000000000000000000000000000000000000000000000008152600401610e279061168c565b60405180910390fd5b600073ffffffffffffffffffffffffffffffffffffffff168173ffffffffffffffffffffffffffffffffffffffff161415610ea0576040517f08c379a0000000000000000000000000000000000000000000000000000000008152600401610e979061160c565b60405180910390fd5b610ea981610f4c565b50565b60008060006041845114610ef5576040517f08c379a0000000000000000000000000000000000000000000000000000000008152600401610eec906116ac565b60405180910390fd5b6020840151925060408401519150606084015160001a90509193909250565b600081604051602001610f279190611522565b604051602081830303815290604052805190602001209050919050565b600033905090565b60008060009054906101000a900473ffffffffffffffffffffffffffffffffffffffff169050816000806101000a81548173ffffffffffffffffffffffffffffffffffffffff021916908373ffffffffffffffffffffffffffffffffffffffff1602179055508173ffffffffffffffffffffffffffffffffffffffff168173ffffffffffffffffffffffffffffffffffffffff167f8be0079c531659141344cd1fd0a4f28419497f9722a3daafe3b4186f6b6457e060405160405180910390a35050565b600061102361101e84611794565b611763565b90508281526020810184848401111561103b57600080fd5b611046848285611863565b509392505050565b60008135905061105d816118ab565b92915050565b600081359050611072816118c2565b92915050565b600082601f83011261108957600080fd5b8135611099848260208601611010565b91505092915050565b6000813590506110b1816118d9565b92915050565b6000815190506110c6816118d9565b92915050565b6000602082840312156110de57600080fd5b60006110ec8482850161104e565b91505092915050565b60006020828403121561110757600080fd5b6000611115848285016110a2565b91505092915050565b60006020828403121561113057600080fd5b600061113e848285016110b7565b91505092915050565b60008060006060848603121561115c57600080fd5b600061116a868287016110a2565b935050602084013567ffffffffffffffff81111561118757600080fd5b61119386828701611078565b92505060406111a486828701611063565b9150509250925092565b600080604083850312156111c157600080fd5b60006111cf858286016110a2565b92505060206111e0858286016110a2565b9150509250929050565b6000806000806080858703121561120057600080fd5b600061120e878288016110a2565b945050602061121f878288016110a2565b935050604085013567ffffffffffffffff81111561123c57600080fd5b61124887828801611078565b925050606061125987828801611063565b91505092959194509250565b61126e816117e0565b82525050565b61127d816117f2565b82525050565b61128c816117fe565b82525050565b6112a361129e826117fe565b611872565b82525050565b6112b28161183f565b82525050565b60006112c5601c836117d5565b91507f19457468657265756d205369676e6564204d6573736167653a0a3332000000006000830152601c82019050919050565b60006113056024836117c4565b91507f446f6e74206861766520656e6f7567682062616c616e636520746f207769746860008301527f64726177000000000000000000000000000000000000000000000000000000006020830152604082019050919050565b600061136b6026836117c4565b91507f4f776e61626c653a206e6577206f776e657220697320746865207a65726f206160008301527f64647265737300000000000000000000000000000000000000000000000000006020830152604082019050919050565b60006113d16014836117c4565b91507f416c726561647920436c61696d205265776172640000000000000000000000006000830152602082019050919050565b60006114116019836117c4565b91507f796f7520617265206e6f742067616d652070726f7669646572000000000000006000830152602082019050919050565b60006114516011836117c4565b91507f796f7520617265206e6f74206f776e65720000000000000000000000000000006000830152602082019050919050565b60006114916020836117c4565b91507f4f776e61626c653a2063616c6c6572206973206e6f7420746865206f776e65726000830152602082019050919050565b60006114d16018836117c4565b91507f696e76616c6964207369676e6174757265206c656e67746800000000000000006000830152602082019050919050565b61150d81611828565b82525050565b61151c81611832565b82525050565b600061152d826112b8565b91506115398284611292565b60208201915081905092915050565b600060208201905061155d6000830184611265565b92915050565b60006040820190506115786000830185611265565b6115856020830184611504565b9392505050565b60006080820190506115a16000830187611283565b6115ae6020830186611513565b6115bb6040830185611283565b6115c86060830184611283565b95945050505050565b60006020820190506115e660008301846112a9565b92915050565b60006020820190508181036000830152611605816112f8565b9050919050565b600060208201905081810360008301526116258161135e565b9050919050565b60006020820190508181036000830152611645816113c4565b9050919050565b6000602082019050818103600083015261166581611404565b9050919050565b6000602082019050818103600083015261168581611444565b9050919050565b600060208201905081810360008301526116a581611484565b9050919050565b600060208201905081810360008301526116c5816114c4565b9050919050565b60006020820190506116e16000830184611504565b92915050565b60006060820190506116fc6000830186611504565b6117096020830185611274565b6117166040830184611265565b949350505050565b60006080820190506117336000830187611504565b6117406020830186611504565b61174d6040830185611265565b61175a6060830184611504565b95945050505050565b6000604051905081810181811067ffffffffffffffff8211171561178a5761178961187c565b5b8060405250919050565b600067ffffffffffffffff8211156117af576117ae61187c565b5b601f19601f8301169050602081019050919050565b600082825260208201905092915050565b600081905092915050565b60006117eb82611808565b9050919050565b60008115159050919050565b6000819050919050565b600073ffffffffffffffffffffffffffffffffffffffff82169050919050565b6000819050919050565b600060ff82169050919050565b600061184a82611851565b9050919050565b600061185c82611808565b9050919050565b82818337600083830152505050565b6000819050919050565b7f4e487b7100000000000000000000000000000000000000000000000000000000600052604160045260246000fd5b6118b4816117e0565b81146118bf57600080fd5b50565b6118cb816117fe565b81146118d657600080fd5b50565b6118e281611828565b81146118ed57600080fd5b5056fea26469706673582212209391d36bcf0cfdd7911bb53427ab51c0c39882301010100ddac0c9adce16efd164736f6c63430008000033",
  "linkReferences": {},
  "deployedLinkReferences": {}
}