{
  "_format": "hh-sol-artifact-1",
  "contractName": "PtitToken",
  "sourceName": "contracts/PtitToken.sol",
  "abi": [
    {
      "inputs": [
        {
          "internalType": "uint256",
          "name": "_chainId",
          "type": "uint256"
        }
      ],
      "stateMutability": "nonpayable",
      "type": "constructor"
    },
    {
      "anonymous": false,
      "inputs": [
        {
          "indexed": true,
          "internalType": "address",
          "name": "src",
          "type": "address"
        },
        {
          "indexed": true,
          "internalType": "address",
          "name": "admin",
          "type": "address"
        },
        {
          "indexed": false,
          "internalType": "uint256",
          "name": "amt",
          "type": "uint256"
        }
      ],
      "name": "Approval",
      "type": "event"
    },
    {
      "anonymous": false,
      "inputs": [
        {
          "indexed": true,
          "internalType": "address",
          "name": "src",
          "type": "address"
        },
        {
          "indexed": true,
          "internalType": "address",
          "name": "dst",
          "type": "address"
        },
        {
          "indexed": false,
          "internalType": "uint256",
          "name": "amt",
          "type": "uint256"
        }
      ],
      "name": "Transfer",
      "type": "event"
    },
    {
      "inputs": [],
      "name": "DOMAIN_SEPARATOR",
      "outputs": [
        {
          "internalType": "bytes32",
          "name": "",
          "type": "bytes32"
        }
      ],
      "stateMutability": "view",
      "type": "function"
    },
    {
      "inputs": [],
      "name": "PERMIT_TYPEHASH",
      "outputs": [
        {
          "internalType": "bytes32",
          "name": "",
          "type": "bytes32"
        }
      ],
      "stateMutability": "view",
      "type": "function"
    },
    {
      "inputs": [
        {
          "internalType": "address",
          "name": "",
          "type": "address"
        },
        {
          "internalType": "address",
          "name": "",
          "type": "address"
        }
      ],
      "name": "allowance",
      "outputs": [
        {
          "internalType": "uint256",
          "name": "",
          "type": "uint256"
        }
      ],
      "stateMutability": "view",
      "type": "function"
    },
    {
      "inputs": [
        {
          "internalType": "address",
          "name": "usr",
          "type": "address"
        },
        {
          "internalType": "uint256",
          "name": "amt",
          "type": "uint256"
        }
      ],
      "name": "approve",
      "outputs": [
        {
          "internalType": "bool",
          "name": "",
          "type": "bool"
        }
      ],
      "stateMutability": "nonpayable",
      "type": "function"
    },
    {
      "inputs": [
        {
          "internalType": "address",
          "name": "",
          "type": "address"
        }
      ],
      "name": "balanceOf",
      "outputs": [
        {
          "internalType": "uint256",
          "name": "",
          "type": "uint256"
        }
      ],
      "stateMutability": "view",
      "type": "function"
    },
    {
      "inputs": [
        {
          "internalType": "address",
          "name": "usr",
          "type": "address"
        },
        {
          "internalType": "uint256",
          "name": "amt",
          "type": "uint256"
        }
      ],
      "name": "burn",
      "outputs": [],
      "stateMutability": "nonpayable",
      "type": "function"
    },
    {
      "inputs": [
        {
          "internalType": "address",
          "name": "",
          "type": "address"
        }
      ],
      "name": "checks",
      "outputs": [
        {
          "internalType": "uint256",
          "name": "",
          "type": "uint256"
        }
      ],
      "stateMutability": "view",
      "type": "function"
    },
    {
      "inputs": [],
      "name": "decimals",
      "outputs": [
        {
          "internalType": "uint8",
          "name": "",
          "type": "uint8"
        }
      ],
      "stateMutability": "view",
      "type": "function"
    },
    {
      "inputs": [
        {
          "internalType": "address",
          "name": "admin",
          "type": "address"
        }
      ],
      "name": "grantPermit",
      "outputs": [],
      "stateMutability": "nonpayable",
      "type": "function"
    },
    {
      "inputs": [
        {
          "internalType": "address",
          "name": "usr",
          "type": "address"
        },
        {
          "internalType": "uint256",
          "name": "amt",
          "type": "uint256"
        }
      ],
      "name": "mint",
      "outputs": [],
      "stateMutability": "nonpayable",
      "type": "function"
    },
    {
      "inputs": [
        {
          "internalType": "address",
          "name": "src",
          "type": "address"
        },
        {
          "internalType": "address",
          "name": "dst",
          "type": "address"
        },
        {
          "internalType": "uint256",
          "name": "amt",
          "type": "uint256"
        }
      ],
      "name": "move",
      "outputs": [],
      "stateMutability": "nonpayable",
      "type": "function"
    },
    {
      "inputs": [],
      "name": "name",
      "outputs": [
        {
          "internalType": "string",
          "name": "",
          "type": "string"
        }
      ],
      "stateMutability": "view",
      "type": "function"
    },
    {
      "inputs": [
        {
          "internalType": "address",
          "name": "",
          "type": "address"
        }
      ],
      "name": "nonces",
      "outputs": [
        {
          "internalType": "uint256",
          "name": "",
          "type": "uint256"
        }
      ],
      "stateMutability": "view",
      "type": "function"
    },
    {
      "inputs": [
        {
          "internalType": "address",
          "name": "holder",
          "type": "address"
        },
        {
          "internalType": "address",
          "name": "spender",
          "type": "address"
        },
        {
          "internalType": "uint256",
          "name": "nonce",
          "type": "uint256"
        },
        {
          "internalType": "uint256",
          "name": "expiry",
          "type": "uint256"
        },
        {
          "internalType": "bool",
          "name": "allowed",
          "type": "bool"
        },
        {
          "internalType": "uint8",
          "name": "v",
          "type": "uint8"
        },
        {
          "internalType": "bytes32",
          "name": "r",
          "type": "bytes32"
        },
        {
          "internalType": "bytes32",
          "name": "s",
          "type": "bytes32"
        }
      ],
      "name": "permit",
      "outputs": [],
      "stateMutability": "nonpayable",
      "type": "function"
    },
    {
      "inputs": [
        {
          "internalType": "address",
          "name": "usr",
          "type": "address"
        },
        {
          "internalType": "uint256",
          "name": "amt",
          "type": "uint256"
        }
      ],
      "name": "pull",
      "outputs": [],
      "stateMutability": "nonpayable",
      "type": "function"
    },
    {
      "inputs": [
        {
          "internalType": "address",
          "name": "usr",
          "type": "address"
        },
        {
          "internalType": "uint256",
          "name": "amt",
          "type": "uint256"
        }
      ],
      "name": "push",
      "outputs": [],
      "stateMutability": "nonpayable",
      "type": "function"
    },
    {
      "inputs": [],
      "name": "symbol",
      "outputs": [
        {
          "internalType": "string",
          "name": "",
          "type": "string"
        }
      ],
      "stateMutability": "view",
      "type": "function"
    },
    {
      "inputs": [],
      "name": "totalSupply",
      "outputs": [
        {
          "internalType": "uint256",
          "name": "",
          "type": "uint256"
        }
      ],
      "stateMutability": "view",
      "type": "function"
    },
    {
      "inputs": [
        {
          "internalType": "address",
          "name": "dst",
          "type": "address"
        },
        {
          "internalType": "uint256",
          "name": "amt",
          "type": "uint256"
        }
      ],
      "name": "transfer",
      "outputs": [
        {
          "internalType": "bool",
          "name": "",
          "type": "bool"
        }
      ],
      "stateMutability": "nonpayable",
      "type": "function"
    },
    {
      "inputs": [
        {
          "internalType": "address",
          "name": "src",
          "type": "address"
        },
        {
          "internalType": "address",
          "name": "dst",
          "type": "address"
        },
        {
          "internalType": "uint256",
          "name": "amt",
          "type": "uint256"
        }
      ],
      "name": "transferFrom",
      "outputs": [
        {
          "internalType": "bool",
          "name": "",
          "type": "bool"
        }
      ],
      "stateMutability": "nonpayable",
      "type": "function"
    },
    {
      "inputs": [
        {
          "internalType": "address",
          "name": "admin",
          "type": "address"
        }
      ],
      "name": "unGrantPermit",
      "outputs": [],
      "stateMutability": "nonpayable",
      "type": "function"
    },
    {
      "inputs": [],
      "name": "version",
      "outputs": [
        {
          "internalType": "string",
          "name": "",
          "type": "string"
        }
      ],
      "stateMutability": "view",
      "type": "function"
    }
  ],
  "bytecode": "0x60806040523480156200001157600080fd5b50604051620022c7380380620022c7833981810160405281019062000037919062000168565b60016000803373ffffffffffffffffffffffffffffffffffffffff1673ffffffffffffffffffffffffffffffffffffffff168152602001908152602001600020819055507f8b73c3c69bb8fe3d512ecc4cf759cc79239f7b179b0ffacaa9a75d522b39400f6040518060400160405280600a81526020017f5074697420546f6b656e00000000000000000000000000000000000000000000815250805190602001206040518060400160405280600181526020017f31000000000000000000000000000000000000000000000000000000000000008152508051906020012083306040516020016200012e959493929190620001c7565b604051602081830303815290604052805190602001206005819055505062000286565b60008151905062000162816200026c565b92915050565b6000602082840312156200017b57600080fd5b60006200018b8482850162000151565b91505092915050565b6200019f8162000224565b82525050565b620001b08162000238565b82525050565b620001c18162000262565b82525050565b600060a082019050620001de6000830188620001a5565b620001ed6020830187620001a5565b620001fc6040830186620001a5565b6200020b6060830185620001b6565b6200021a608083018462000194565b9695505050505050565b6000620002318262000242565b9050919050565b6000819050919050565b600073ffffffffffffffffffffffffffffffffffffffff82169050919050565b6000819050919050565b620002778162000262565b81146200028357600080fd5b50565b61203180620002966000396000f3fe608060405234801561001057600080fd5b50600436106101425760003560e01c806370a08231116100b85780639dc29fac1161007c5780639dc29fac14610379578063a9059cbb14610395578063b753a98c146103c5578063bb35783b146103e1578063dd62ed3e146103fd578063f2d5d56b1461042d57610142565b806370a08231146102c35780637ecebe00146102f357806385771172146103235780638fcbaf0c1461033f57806395d89b411461035b57610142565b806327fff0db1161010a57806327fff0db146101ff57806330adf81f1461022f578063313ce5671461024d5780633644e5151461026b57806340c10f191461028957806354fd4d50146102a557610142565b806306fdde0314610147578063095ea7b31461016557806313a881b81461019557806318160ddd146101b157806323b872dd146101cf575b600080fd5b61014f610449565b60405161015c9190611c7a565b60405180910390f35b61017f600480360381019061017a9190611890565b610482565b60405161018c9190611b9e565b60405180910390f35b6101af60048036038101906101aa919061172a565b610574565b005b6101b961063c565b6040516101c69190611d7c565b60405180910390f35b6101e960048036038101906101e4919061178f565b610642565b6040516101f69190611b9e565b60405180910390f35b6102196004803603810190610214919061172a565b610af1565b6040516102269190611d7c565b60405180910390f35b610237610b09565b6040516102449190611bb9565b60405180910390f35b610255610b30565b6040516102629190611d97565b60405180910390f35b610273610b35565b6040516102809190611bb9565b60405180910390f35b6102a3600480360381019061029e9190611890565b610b3b565b005b6102ad610cc4565b6040516102ba9190611c7a565b60405180910390f35b6102dd60048036038101906102d8919061172a565b610cfd565b6040516102ea9190611d7c565b60405180910390f35b61030d6004803603810190610308919061172a565b610d15565b60405161031a9190611d7c565b60405180910390f35b61033d6004803603810190610338919061172a565b610d2d565b005b610359600480360381019061035491906117de565b610df5565b005b6103636111aa565b6040516103709190611c7a565b60405180910390f35b610393600480360381019061038e9190611890565b6111e3565b005b6103af60048036038101906103aa9190611890565b611610565b6040516103bc9190611b9e565b60405180910390f35b6103df60048036038101906103da9190611890565b611625565b005b6103fb60048036038101906103f6919061178f565b611635565b005b61041760048036038101906104129190611753565b611646565b6040516104249190611d7c565b60405180910390f35b61044760048036038101906104429190611890565b61166b565b005b6040518060400160405280600a81526020017f5074697420546f6b656e0000000000000000000000000000000000000000000081525081565b600081600360003373ffffffffffffffffffffffffffffffffffffffff1673ffffffffffffffffffffffffffffffffffffffff16815260200190815260200160002060008573ffffffffffffffffffffffffffffffffffffffff1673ffffffffffffffffffffffffffffffffffffffff168152602001908152602001600020819055508273ffffffffffffffffffffffffffffffffffffffff163373ffffffffffffffffffffffffffffffffffffffff167f8c5be1e5ebec7d5bd14f71427d1e84f3dd0314c0f7b2291e5b200ac8c7c3b925846040516105629190611d7c565b60405180910390a36001905092915050565b60016000803373ffffffffffffffffffffffffffffffffffffffff1673ffffffffffffffffffffffffffffffffffffffff16815260200190815260200160002054146105f5576040517f08c379a00000000000000000000000000000000000000000000000000000000081526004016105ec90611d5c565b60405180910390fd5b60008060008373ffffffffffffffffffffffffffffffffffffffff1673ffffffffffffffffffffffffffffffffffffffff1681526020019081526020016000208190555050565b60015481565b600081600260008673ffffffffffffffffffffffffffffffffffffffff1673ffffffffffffffffffffffffffffffffffffffff1681526020019081526020016000205410156106c6576040517f08c379a00000000000000000000000000000000000000000000000000000000081526004016106bd90611c9c565b60405180910390fd5b3373ffffffffffffffffffffffffffffffffffffffff168473ffffffffffffffffffffffffffffffffffffffff161415801561079e57507fffffffffffffffffffffffffffffffffffffffffffffffffffffffffffffffff600360008673ffffffffffffffffffffffffffffffffffffffff1673ffffffffffffffffffffffffffffffffffffffff16815260200190815260200160002060003373ffffffffffffffffffffffffffffffffffffffff1673ffffffffffffffffffffffffffffffffffffffff1681526020019081526020016000205414155b156109695781600360008673ffffffffffffffffffffffffffffffffffffffff1673ffffffffffffffffffffffffffffffffffffffff16815260200190815260200160002060003373ffffffffffffffffffffffffffffffffffffffff1673ffffffffffffffffffffffffffffffffffffffff168152602001908152602001600020541015610862576040517f08c379a000000000000000000000000000000000000000000000000000000000815260040161085990611d1c565b60405180910390fd5b6108e8600360008673ffffffffffffffffffffffffffffffffffffffff1673ffffffffffffffffffffffffffffffffffffffff16815260200190815260200160002060003373ffffffffffffffffffffffffffffffffffffffff1673ffffffffffffffffffffffffffffffffffffffff168152602001908152602001600020548361167b565b600360008673ffffffffffffffffffffffffffffffffffffffff1673ffffffffffffffffffffffffffffffffffffffff16815260200190815260200160002060003373ffffffffffffffffffffffffffffffffffffffff1673ffffffffffffffffffffffffffffffffffffffff168152602001908152602001600020819055505b6109b2600260008673ffffffffffffffffffffffffffffffffffffffff1673ffffffffffffffffffffffffffffffffffffffff168152602001908152602001600020548361167b565b600260008673ffffffffffffffffffffffffffffffffffffffff1673ffffffffffffffffffffffffffffffffffffffff16815260200190815260200160002081905550610a3e600260008573ffffffffffffffffffffffffffffffffffffffff1673ffffffffffffffffffffffffffffffffffffffff168152602001908152602001600020548361169e565b600260008573ffffffffffffffffffffffffffffffffffffffff1673ffffffffffffffffffffffffffffffffffffffff168152602001908152602001600020819055508273ffffffffffffffffffffffffffffffffffffffff168473ffffffffffffffffffffffffffffffffffffffff167fddf252ad1be2c89b69c2b068fc378daa952ba7f163c4a11628f55a4df523b3ef84604051610ade9190611d7c565b60405180910390a3600190509392505050565b60006020528060005260406000206000915090505481565b7fea2aa0a1be11a07ed86d755c93467f4f82362b452371d1ba94d1715123511acb60001b81565b601281565b60055481565b60016000803373ffffffffffffffffffffffffffffffffffffffff1673ffffffffffffffffffffffffffffffffffffffff1681526020019081526020016000205414610bbc576040517f08c379a0000000000000000000000000000000000000000000000000000000008152600401610bb390611d5c565b60405180910390fd5b610c05600260008473ffffffffffffffffffffffffffffffffffffffff1673ffffffffffffffffffffffffffffffffffffffff168152602001908152602001600020548261169e565b600260008473ffffffffffffffffffffffffffffffffffffffff1673ffffffffffffffffffffffffffffffffffffffff16815260200190815260200160002081905550610c546001548261169e565b6001819055508173ffffffffffffffffffffffffffffffffffffffff16600073ffffffffffffffffffffffffffffffffffffffff167fddf252ad1be2c89b69c2b068fc378daa952ba7f163c4a11628f55a4df523b3ef83604051610cb89190611d7c565b60405180910390a35050565b6040518060400160405280600181526020017f310000000000000000000000000000000000000000000000000000000000000081525081565b60026020528060005260406000206000915090505481565b60046020528060005260406000206000915090505481565b60016000803373ffffffffffffffffffffffffffffffffffffffff1673ffffffffffffffffffffffffffffffffffffffff1681526020019081526020016000205414610dae576040517f08c379a0000000000000000000000000000000000000000000000000000000008152600401610da590611d5c565b60405180910390fd5b60016000808373ffffffffffffffffffffffffffffffffffffffff1673ffffffffffffffffffffffffffffffffffffffff1681526020019081526020016000208190555050565b60006005547fea2aa0a1be11a07ed86d755c93467f4f82362b452371d1ba94d1715123511acb60001b8a8a8a8a8a604051602001610e3896959493929190611bd4565b60405160208183030381529060405280519060200120604051602001610e5f929190611b67565b604051602081830303815290604052805190602001209050600073ffffffffffffffffffffffffffffffffffffffff168973ffffffffffffffffffffffffffffffffffffffff161415610ee7576040517f08c379a0000000000000000000000000000000000000000000000000000000008152600401610ede90611cdc565b60405180910390fd5b60018185858560405160008152602001604052604051610f0a9493929190611c35565b6020604051602081039080840390855afa158015610f2c573d6000803e3d6000fd5b5050506020604051035173ffffffffffffffffffffffffffffffffffffffff168973ffffffffffffffffffffffffffffffffffffffff1614610fa3576040517f08c379a0000000000000000000000000000000000000000000000000000000008152600401610f9a90611d3c565b60405180910390fd5b6000861480610fb25750854211155b610ff1576040517f08c379a0000000000000000000000000000000000000000000000000000000008152600401610fe890611cbc565b60405180910390fd5b600460008a73ffffffffffffffffffffffffffffffffffffffff1673ffffffffffffffffffffffffffffffffffffffff168152602001908152602001600020600081548092919061104190611ef5565b919050558714611086576040517f08c379a000000000000000000000000000000000000000000000000000000000815260040161107d90611cfc565b60405180910390fd5b6000856110945760006110b6565b7fffffffffffffffffffffffffffffffffffffffffffffffffffffffffffffffff5b905080600360008c73ffffffffffffffffffffffffffffffffffffffff1673ffffffffffffffffffffffffffffffffffffffff16815260200190815260200160002060008b73ffffffffffffffffffffffffffffffffffffffff1673ffffffffffffffffffffffffffffffffffffffff168152602001908152602001600020819055508873ffffffffffffffffffffffffffffffffffffffff168a73ffffffffffffffffffffffffffffffffffffffff167f8c5be1e5ebec7d5bd14f71427d1e84f3dd0314c0f7b2291e5b200ac8c7c3b925836040516111969190611d7c565b60405180910390a350505050505050505050565b6040518060400160405280600481526020017f707469740000000000000000000000000000000000000000000000000000000081525081565b80600260008473ffffffffffffffffffffffffffffffffffffffff1673ffffffffffffffffffffffffffffffffffffffff168152602001908152602001600020541015611265576040517f08c379a000000000000000000000000000000000000000000000000000000000815260040161125c90611c9c565b60405180910390fd5b3373ffffffffffffffffffffffffffffffffffffffff168273ffffffffffffffffffffffffffffffffffffffff161415801561133d57507fffffffffffffffffffffffffffffffffffffffffffffffffffffffffffffffff600360008473ffffffffffffffffffffffffffffffffffffffff1673ffffffffffffffffffffffffffffffffffffffff16815260200190815260200160002060003373ffffffffffffffffffffffffffffffffffffffff1673ffffffffffffffffffffffffffffffffffffffff1681526020019081526020016000205414155b156115085780600360008473ffffffffffffffffffffffffffffffffffffffff1673ffffffffffffffffffffffffffffffffffffffff16815260200190815260200160002060003373ffffffffffffffffffffffffffffffffffffffff1673ffffffffffffffffffffffffffffffffffffffff168152602001908152602001600020541015611401576040517f08c379a00000000000000000000000000000000000000000000000000000000081526004016113f890611d1c565b60405180910390fd5b611487600360008473ffffffffffffffffffffffffffffffffffffffff1673ffffffffffffffffffffffffffffffffffffffff16815260200190815260200160002060003373ffffffffffffffffffffffffffffffffffffffff1673ffffffffffffffffffffffffffffffffffffffff168152602001908152602001600020548261167b565b600360008473ffffffffffffffffffffffffffffffffffffffff1673ffffffffffffffffffffffffffffffffffffffff16815260200190815260200160002060003373ffffffffffffffffffffffffffffffffffffffff1673ffffffffffffffffffffffffffffffffffffffff168152602001908152602001600020819055505b611551600260008473ffffffffffffffffffffffffffffffffffffffff1673ffffffffffffffffffffffffffffffffffffffff168152602001908152602001600020548261167b565b600260008473ffffffffffffffffffffffffffffffffffffffff1673ffffffffffffffffffffffffffffffffffffffff168152602001908152602001600020819055506115a06001548261167b565b600181905550600073ffffffffffffffffffffffffffffffffffffffff168273ffffffffffffffffffffffffffffffffffffffff167fddf252ad1be2c89b69c2b068fc378daa952ba7f163c4a11628f55a4df523b3ef836040516116049190611d7c565b60405180910390a35050565b600061161d338484610642565b905092915050565b611630338383610642565b505050565b611640838383610642565b50505050565b6003602052816000526040600020602052806000526040600020600091509150505481565b611676823383610642565b505050565b600082828461168a9190611e2f565b915081111561169857600080fd5b92915050565b60008282846116ad9190611dd9565b91508110156116bb57600080fd5b92915050565b6000813590506116d081611f88565b92915050565b6000813590506116e581611f9f565b92915050565b6000813590506116fa81611fb6565b92915050565b60008135905061170f81611fcd565b92915050565b60008135905061172481611fe4565b92915050565b60006020828403121561173c57600080fd5b600061174a848285016116c1565b91505092915050565b6000806040838503121561176657600080fd5b6000611774858286016116c1565b9250506020611785858286016116c1565b9150509250929050565b6000806000606084860312156117a457600080fd5b60006117b2868287016116c1565b93505060206117c3868287016116c1565b92505060406117d486828701611700565b9150509250925092565b600080600080600080600080610100898b0312156117fb57600080fd5b60006118098b828c016116c1565b985050602061181a8b828c016116c1565b975050604061182b8b828c01611700565b965050606061183c8b828c01611700565b955050608061184d8b828c016116d6565b94505060a061185e8b828c01611715565b93505060c061186f8b828c016116eb565b92505060e06118808b828c016116eb565b9150509295985092959890939650565b600080604083850312156118a357600080fd5b60006118b1858286016116c1565b92505060206118c285828601611700565b9150509250929050565b6118d581611e63565b82525050565b6118e481611e75565b82525050565b6118f381611e81565b82525050565b61190a61190582611e81565b611f3e565b82525050565b600061191b82611db2565b6119258185611dbd565b9350611935818560208601611ec2565b61193e81611f77565b840191505092915050565b6000611956600283611dce565b91507f19010000000000000000000000000000000000000000000000000000000000006000830152600282019050919050565b6000611996601983611dbd565b91507f707469742f696e73756666696369656e742d62616c616e6365000000000000006000830152602082019050919050565b60006119d6601383611dbd565b91507f707469742f7065726d69742d65787069726564000000000000000000000000006000830152602082019050919050565b6000611a16601683611dbd565b91507f707469742f696e76616c69642d616464726573732d30000000000000000000006000830152602082019050919050565b6000611a56601283611dbd565b91507f707469742f696e76616c69642d6e6f6e636500000000000000000000000000006000830152602082019050919050565b6000611a96601b83611dbd565b91507f707469742f696e73756666696369656e742d616c6c6f77616e636500000000006000830152602082019050919050565b6000611ad6601383611dbd565b91507f707469742f696e76616c69642d7065726d6974000000000000000000000000006000830152602082019050919050565b6000611b16601383611dbd565b91507f707469742f6e6f742d617574686f72697a6564000000000000000000000000006000830152602082019050919050565b611b5281611eab565b82525050565b611b6181611eb5565b82525050565b6000611b7282611949565b9150611b7e82856118f9565b602082019150611b8e82846118f9565b6020820191508190509392505050565b6000602082019050611bb360008301846118db565b92915050565b6000602082019050611bce60008301846118ea565b92915050565b600060c082019050611be960008301896118ea565b611bf660208301886118cc565b611c0360408301876118cc565b611c106060830186611b49565b611c1d6080830185611b49565b611c2a60a08301846118db565b979650505050505050565b6000608082019050611c4a60008301876118ea565b611c576020830186611b58565b611c6460408301856118ea565b611c7160608301846118ea565b95945050505050565b60006020820190508181036000830152611c948184611910565b905092915050565b60006020820190508181036000830152611cb581611989565b9050919050565b60006020820190508181036000830152611cd5816119c9565b9050919050565b60006020820190508181036000830152611cf581611a09565b9050919050565b60006020820190508181036000830152611d1581611a49565b9050919050565b60006020820190508181036000830152611d3581611a89565b9050919050565b60006020820190508181036000830152611d5581611ac9565b9050919050565b60006020820190508181036000830152611d7581611b09565b9050919050565b6000602082019050611d916000830184611b49565b92915050565b6000602082019050611dac6000830184611b58565b92915050565b600081519050919050565b600082825260208201905092915050565b600081905092915050565b6000611de482611eab565b9150611def83611eab565b9250827fffffffffffffffffffffffffffffffffffffffffffffffffffffffffffffffff03821115611e2457611e23611f48565b5b828201905092915050565b6000611e3a82611eab565b9150611e4583611eab565b925082821015611e5857611e57611f48565b5b828203905092915050565b6000611e6e82611e8b565b9050919050565b60008115159050919050565b6000819050919050565b600073ffffffffffffffffffffffffffffffffffffffff82169050919050565b6000819050919050565b600060ff82169050919050565b60005b83811015611ee0578082015181840152602081019050611ec5565b83811115611eef576000848401525b50505050565b6000611f0082611eab565b91507fffffffffffffffffffffffffffffffffffffffffffffffffffffffffffffffff821415611f3357611f32611f48565b5b600182019050919050565b6000819050919050565b7f4e487b7100000000000000000000000000000000000000000000000000000000600052601160045260246000fd5b6000601f19601f8301169050919050565b611f9181611e63565b8114611f9c57600080fd5b50565b611fa881611e75565b8114611fb357600080fd5b50565b611fbf81611e81565b8114611fca57600080fd5b50565b611fd681611eab565b8114611fe157600080fd5b50565b611fed81611eb5565b8114611ff857600080fd5b5056fea264697066735822122010a97a02369ac1c23c0dabdeefccf9df0765b87d8273a4833d4e9eafc2bfc0c064736f6c63430008000033",
  "linkReferences": {},
  "deployedLinkReferences": {}
}