{
  "_format": "hh-sol-artifact-1",
  "contractName": "TwoPlayersV1",
  "sourceName": "contracts/TwoPlayersV1.sol",
  "abi": [
    {
      "inputs": [
        {
          "internalType": "address",
          "name": "_Vault",
          "type": "address"
        }
      ],
      "stateMutability": "nonpayable",
      "type": "constructor"
    },
    {
      "anonymous": false,
      "inputs": [
        {
          "indexed": true,
          "internalType": "address",
          "name": "previousOwner",
          "type": "address"
        },
        {
          "indexed": true,
          "internalType": "address",
          "name": "newOwner",
          "type": "address"
        }
      ],
      "name": "OwnershipTransferred",
      "type": "event"
    },
    {
      "anonymous": false,
      "inputs": [
        {
          "indexed": false,
          "internalType": "uint256",
          "name": "playID",
          "type": "uint256"
        },
        {
          "indexed": false,
          "internalType": "uint256",
          "name": "amount",
          "type": "uint256"
        },
        {
          "indexed": false,
          "internalType": "address",
          "name": "player",
          "type": "address"
        },
        {
          "indexed": false,
          "internalType": "uint256",
          "name": "time",
          "type": "uint256"
        }
      ],
      "name": "joingame",
      "type": "event"
    },
    {
      "anonymous": false,
      "inputs": [
        {
          "indexed": false,
          "internalType": "address",
          "name": "player",
          "type": "address"
        },
        {
          "indexed": false,
          "internalType": "uint256",
          "name": "amount",
          "type": "uint256"
        }
      ],
      "name": "playerclaimback",
      "type": "event"
    },
    {
      "anonymous": false,
      "inputs": [
        {
          "indexed": false,
          "internalType": "address",
          "name": "winner",
          "type": "address"
        },
        {
          "indexed": false,
          "internalType": "uint256",
          "name": "amount",
          "type": "uint256"
        }
      ],
      "name": "winnerclaim",
      "type": "event"
    },
    {
      "inputs": [],
      "name": "Vault",
      "outputs": [
        {
          "internalType": "contract Vault_Interface",
          "name": "",
          "type": "address"
        }
      ],
      "stateMutability": "view",
      "type": "function"
    },
    {
      "inputs": [
        {
          "internalType": "bytes",
          "name": "b",
          "type": "bytes"
        }
      ],
      "name": "bytesToAddress",
      "outputs": [
        {
          "internalType": "address",
          "name": "addr",
          "type": "address"
        }
      ],
      "stateMutability": "pure",
      "type": "function"
    },
    {
      "inputs": [
        {
          "internalType": "uint256",
          "name": "",
          "type": "uint256"
        }
      ],
      "name": "gamePlayID",
      "outputs": [
        {
          "internalType": "uint256",
          "name": "amount",
          "type": "uint256"
        },
        {
          "internalType": "bool",
          "name": "winClaimed",
          "type": "bool"
        }
      ],
      "stateMutability": "view",
      "type": "function"
    },
    {
      "inputs": [
        {
          "internalType": "bytes32",
          "name": "_messageHash",
          "type": "bytes32"
        }
      ],
      "name": "getEthSignedMessageHash",
      "outputs": [
        {
          "internalType": "bytes32",
          "name": "",
          "type": "bytes32"
        }
      ],
      "stateMutability": "pure",
      "type": "function"
    },
    {
      "inputs": [
        {
          "internalType": "uint256",
          "name": "_amt",
          "type": "uint256"
        },
        {
          "internalType": "uint256",
          "name": "_id",
          "type": "uint256"
        },
        {
          "internalType": "bytes",
          "name": "_signature",
          "type": "bytes"
        },
        {
          "internalType": "bytes32",
          "name": "_messageHash",
          "type": "bytes32"
        }
      ],
      "name": "joinGame",
      "outputs": [],
      "stateMutability": "nonpayable",
      "type": "function"
    },
    {
      "inputs": [],
      "name": "owner",
      "outputs": [
        {
          "internalType": "address",
          "name": "",
          "type": "address"
        }
      ],
      "stateMutability": "view",
      "type": "function"
    },
    {
      "inputs": [
        {
          "internalType": "uint256",
          "name": "_id",
          "type": "uint256"
        }
      ],
      "name": "playerClaimBack",
      "outputs": [],
      "stateMutability": "nonpayable",
      "type": "function"
    },
    {
      "inputs": [],
      "name": "renounceOwnership",
      "outputs": [],
      "stateMutability": "nonpayable",
      "type": "function"
    },
    {
      "inputs": [
        {
          "internalType": "address",
          "name": "_a",
          "type": "address"
        }
      ],
      "name": "setVerification",
      "outputs": [],
      "stateMutability": "nonpayable",
      "type": "function"
    },
    {
      "inputs": [
        {
          "internalType": "bytes",
          "name": "sig",
          "type": "bytes"
        }
      ],
      "name": "splitSignature",
      "outputs": [
        {
          "internalType": "bytes32",
          "name": "r",
          "type": "bytes32"
        },
        {
          "internalType": "bytes32",
          "name": "s",
          "type": "bytes32"
        },
        {
          "internalType": "uint8",
          "name": "v",
          "type": "uint8"
        }
      ],
      "stateMutability": "pure",
      "type": "function"
    },
    {
      "inputs": [
        {
          "internalType": "address",
          "name": "newOwner",
          "type": "address"
        }
      ],
      "name": "transferOwnership",
      "outputs": [],
      "stateMutability": "nonpayable",
      "type": "function"
    },
    {
      "inputs": [],
      "name": "verification",
      "outputs": [
        {
          "internalType": "address",
          "name": "",
          "type": "address"
        }
      ],
      "stateMutability": "view",
      "type": "function"
    },
    {
      "inputs": [
        {
          "internalType": "uint256",
          "name": "_id",
          "type": "uint256"
        }
      ],
      "name": "viewPlayer",
      "outputs": [
        {
          "internalType": "address[]",
          "name": "players",
          "type": "address[]"
        }
      ],
      "stateMutability": "view",
      "type": "function"
    },
    {
      "inputs": [
        {
          "internalType": "uint256",
          "name": "_id",
          "type": "uint256"
        },
        {
          "internalType": "bytes",
          "name": "_signature",
          "type": "bytes"
        },
        {
          "internalType": "bytes32",
          "name": "_messageHash",
          "type": "bytes32"
        },
        {
          "internalType": "bytes",
          "name": "_winner",
          "type": "bytes"
        }
      ],
      "name": "winnerClaim",
      "outputs": [],
      "stateMutability": "nonpayable",
      "type": "function"
    }
  ],
  "bytecode": "0x60806040523480156200001157600080fd5b5060405162001f9638038062001f96833981810160405281019062000037919062000182565b620000576200004b6200009f60201b60201c565b620000a760201b60201c565b80600160006101000a81548173ffffffffffffffffffffffffffffffffffffffff021916908373ffffffffffffffffffffffffffffffffffffffff16021790555050620001fc565b600033905090565b60008060009054906101000a900473ffffffffffffffffffffffffffffffffffffffff169050816000806101000a81548173ffffffffffffffffffffffffffffffffffffffff021916908373ffffffffffffffffffffffffffffffffffffffff1602179055508173ffffffffffffffffffffffffffffffffffffffff168173ffffffffffffffffffffffffffffffffffffffff167f8be0079c531659141344cd1fd0a4f28419497f9722a3daafe3b4186f6b6457e060405160405180910390a35050565b6000815190506200017c81620001e2565b92915050565b6000602082840312156200019557600080fd5b6000620001a5848285016200016b565b91505092915050565b6000620001bb82620001c2565b9050919050565b600073ffffffffffffffffffffffffffffffffffffffff82169050919050565b620001ed81620001ae565b8114620001f957600080fd5b50565b611d8a806200020c6000396000f3fe608060405234801561001057600080fd5b50600436106100ea5760003560e01c80638ed1329a1161008c578063a7bb580311610066578063a7bb580314610224578063f2fde38b14610256578063fa252f5514610272578063fa540801146102a2576100ea565b80638ed1329a146101bb578063971f8bb1146101ec578063a0da7a7814610208576100ea565b80634a8afb04116100c85780634a8afb04146101595780634ffe2a8b14610175578063715018a6146101935780638da5cb5b1461019d576100ea565b80632b51d511146100ef5780632d2c44f21461010b57806342526e4e14610129575b600080fd5b610109600480360381019061010491906113e8565b6102d2565b005b6101136105c6565b604051610120919061195b565b60405180910390f35b610143600480360381019061013e9190611355565b6105ec565b604051610150919061185e565b60405180910390f35b610173600480360381019061016e919061147b565b6105fa565b005b61017d6109f4565b60405161018a919061185e565b60405180910390f35b61019b610a1a565b005b6101a5610aa2565b6040516101b2919061185e565b60405180910390f35b6101d560048036038101906101d09190611396565b610acb565b6040516101e3929190611a56565b60405180910390f35b610206600480360381019061020191906112da565b610afc565b005b610222600480360381019061021d9190611396565b610bbc565b005b61023e60048036038101906102399190611355565b610f09565b60405161024d939291906118df565b60405180910390f35b610270600480360381019061026b91906112da565b610f71565b005b61028c60048036038101906102879190611396565b611069565b60405161029991906118a2565b60405180910390f35b6102bc60048036038101906102b7919061132c565b61110d565b6040516102c991906118c4565b60405180910390f35b60008060006102e086610f09565b92509250925060006102f18661110d565b90506000600182848787604051600081526020016040526040516103189493929190611916565b6020604051602081039080840390855afa15801561033a573d6000803e3d6000fd5b5050506020604051035190506000600360008b81526020019081526020016000209050600115158160020160009054906101000a900460ff16151514156103b6576040517f08c379a00000000000000000000000000000000000000000000000000000000081526004016103ad906119b6565b60405180910390fd5b60018160020160006101000a81548160ff02191690831515021790555060006103de886105ec565b905060005b60028160ff16101561057b57826001018160ff168154811061042e577f4e487b7100000000000000000000000000000000000000000000000000000000600052603260045260246000fd5b9060005260206000200160009054906101000a900473ffffffffffffffffffffffffffffffffffffffff1673ffffffffffffffffffffffffffffffffffffffff168473ffffffffffffffffffffffffffffffffffffffff161480156104bf57508173ffffffffffffffffffffffffffffffffffffffff168473ffffffffffffffffffffffffffffffffffffffff1614155b1561056857600160009054906101000a900473ffffffffffffffffffffffffffffffffffffffff1673ffffffffffffffffffffffffffffffffffffffff16631698755f83856000015460026105149190611b7a565b6040518363ffffffff1660e01b8152600401610531929190611879565b600060405180830381600087803b15801561054b57600080fd5b505af115801561055f573d6000803e3d6000fd5b5050505061057b565b808061057390611c66565b9150506103e3565b507fac5d49a884299e9774111bb8cf86e72d324af4557250ce55e537618fbc3ffc8d8183600001546040516105b1929190611879565b60405180910390a15050505050505050505050565b600160009054906101000a900473ffffffffffffffffffffffffffffffffffffffff1681565b600060148201519050919050565b600080600061060885610f09565b92509250925060006106198561110d565b90506000600182848787604051600081526020016040526040516106409493929190611916565b6020604051602081039080840390855afa158015610662573d6000803e3d6000fd5b505050602060405103519050600260009054906101000a900473ffffffffffffffffffffffffffffffffffffffff1673ffffffffffffffffffffffffffffffffffffffff168173ffffffffffffffffffffffffffffffffffffffff16146106fe576040517f08c379a00000000000000000000000000000000000000000000000000000000081526004016106f5906119f6565b60405180910390fd5b88600160009054906101000a900473ffffffffffffffffffffffffffffffffffffffff1673ffffffffffffffffffffffffffffffffffffffff16634e33f83b336040518263ffffffff1660e01b815260040161075a919061185e565b602060405180830381600087803b15801561077457600080fd5b505af1158015610788573d6000803e3d6000fd5b505050506040513d601f19601f820116820180604052508101906107ac91906113bf565b10156107ed576040517f08c379a00000000000000000000000000000000000000000000000000000000081526004016107e490611976565b60405180910390fd5b6000600360008a81526020019081526020016000209050600160009054906101000a900473ffffffffffffffffffffffffffffffffffffffff1673ffffffffffffffffffffffffffffffffffffffff1663cd762827338c6040518363ffffffff1660e01b8152600401610861929190611879565b602060405180830381600087803b15801561087b57600080fd5b505af115801561088f573d6000803e3d6000fd5b505050506040513d601f19601f820116820180604052508101906108b39190611303565b6108f2576040517f08c379a00000000000000000000000000000000000000000000000000000000081526004016108e9906119f6565b60405180910390fd5b60028160010180549050111561093d576040517f08c379a000000000000000000000000000000000000000000000000000000000815260040161093490611a36565b60405180910390fd5b80600101339080600181540180825580915050600190039060005260206000200160009091909190916101000a81548173ffffffffffffffffffffffffffffffffffffffff021916908373ffffffffffffffffffffffffffffffffffffffff1602179055508981600001819055507f57e7187e79e8f7daae9cd3e70fcd2109629c8b9a6c095048bea752fa161f9c34898b33426040516109e09493929190611a7f565b60405180910390a150505050505050505050565b600260009054906101000a900473ffffffffffffffffffffffffffffffffffffffff1681565b610a2261113d565b73ffffffffffffffffffffffffffffffffffffffff16610a40610aa2565b73ffffffffffffffffffffffffffffffffffffffff1614610a96576040517f08c379a0000000000000000000000000000000000000000000000000000000008152600401610a8d906119d6565b60405180910390fd5b610aa06000611145565b565b60008060009054906101000a900473ffffffffffffffffffffffffffffffffffffffff16905090565b60036020528060005260406000206000915090508060000154908060020160009054906101000a900460ff16905082565b610b0461113d565b73ffffffffffffffffffffffffffffffffffffffff16610b22610aa2565b73ffffffffffffffffffffffffffffffffffffffff1614610b78576040517f08c379a0000000000000000000000000000000000000000000000000000000008152600401610b6f906119d6565b60405180910390fd5b80600260006101000a81548173ffffffffffffffffffffffffffffffffffffffff021916908373ffffffffffffffffffffffffffffffffffffffff16021790555050565b6000600360008381526020019081526020016000209050600115158160030160003373ffffffffffffffffffffffffffffffffffffffff1673ffffffffffffffffffffffffffffffffffffffff16815260200190815260200160002060009054906101000a900460ff1615151415610c69576040517f08c379a0000000000000000000000000000000000000000000000000000000008152600401610c60906119b6565b60405180910390fd5b3373ffffffffffffffffffffffffffffffffffffffff1681600101600081548110610cbd577f4e487b7100000000000000000000000000000000000000000000000000000000600052603260045260246000fd5b9060005260206000200160009054906101000a900473ffffffffffffffffffffffffffffffffffffffff1673ffffffffffffffffffffffffffffffffffffffff161480610d9c57503373ffffffffffffffffffffffffffffffffffffffff1681600101600181548110610d59577f4e487b7100000000000000000000000000000000000000000000000000000000600052603260045260246000fd5b9060005260206000200160009054906101000a900473ffffffffffffffffffffffffffffffffffffffff1673ffffffffffffffffffffffffffffffffffffffff16145b610ddb576040517f08c379a0000000000000000000000000000000000000000000000000000000008152600401610dd2906119f6565b60405180910390fd5b60018160030160003373ffffffffffffffffffffffffffffffffffffffff1673ffffffffffffffffffffffffffffffffffffffff16815260200190815260200160002060006101000a81548160ff021916908315150217905550600160009054906101000a900473ffffffffffffffffffffffffffffffffffffffff1673ffffffffffffffffffffffffffffffffffffffff16631698755f3383600001546040518363ffffffff1660e01b8152600401610e96929190611879565b600060405180830381600087803b158015610eb057600080fd5b505af1158015610ec4573d6000803e3d6000fd5b505050507fc89daef3e82928c5a0891c1baeafa509bf179637c972b11ac79c14b196fcf5f1338260000154604051610efd929190611879565b60405180910390a15050565b60008060006041845114610f52576040517f08c379a0000000000000000000000000000000000000000000000000000000008152600401610f4990611a16565b60405180910390fd5b6020840151925060408401519150606084015160001a90509193909250565b610f7961113d565b73ffffffffffffffffffffffffffffffffffffffff16610f97610aa2565b73ffffffffffffffffffffffffffffffffffffffff1614610fed576040517f08c379a0000000000000000000000000000000000000000000000000000000008152600401610fe4906119d6565b60405180910390fd5b600073ffffffffffffffffffffffffffffffffffffffff168173ffffffffffffffffffffffffffffffffffffffff16141561105d576040517f08c379a000000000000000000000000000000000000000000000000000000000815260040161105490611996565b60405180910390fd5b61106681611145565b50565b60606003600083815260200190815260200160002060010180548060200260200160405190810160405280929190818152602001828054801561110157602002820191906000526020600020905b8160009054906101000a900473ffffffffffffffffffffffffffffffffffffffff1673ffffffffffffffffffffffffffffffffffffffff16815260200190600101908083116110b7575b50505050509050919050565b6000816040516020016111209190611838565b604051602081830303815290604052805190602001209050919050565b600033905090565b60008060009054906101000a900473ffffffffffffffffffffffffffffffffffffffff169050816000806101000a81548173ffffffffffffffffffffffffffffffffffffffff021916908373ffffffffffffffffffffffffffffffffffffffff1602179055508173ffffffffffffffffffffffffffffffffffffffff168173ffffffffffffffffffffffffffffffffffffffff167f8be0079c531659141344cd1fd0a4f28419497f9722a3daafe3b4186f6b6457e060405160405180910390a35050565b600061121c61121784611af5565b611ac4565b90508281526020810184848401111561123457600080fd5b61123f848285611c57565b509392505050565b60008135905061125681611cf8565b92915050565b60008151905061126b81611d0f565b92915050565b60008135905061128081611d26565b92915050565b600082601f83011261129757600080fd5b81356112a7848260208601611209565b91505092915050565b6000813590506112bf81611d3d565b92915050565b6000815190506112d481611d3d565b92915050565b6000602082840312156112ec57600080fd5b60006112fa84828501611247565b91505092915050565b60006020828403121561131557600080fd5b60006113238482850161125c565b91505092915050565b60006020828403121561133e57600080fd5b600061134c84828501611271565b91505092915050565b60006020828403121561136757600080fd5b600082013567ffffffffffffffff81111561138157600080fd5b61138d84828501611286565b91505092915050565b6000602082840312156113a857600080fd5b60006113b6848285016112b0565b91505092915050565b6000602082840312156113d157600080fd5b60006113df848285016112c5565b91505092915050565b600080600080608085870312156113fe57600080fd5b600061140c878288016112b0565b945050602085013567ffffffffffffffff81111561142957600080fd5b61143587828801611286565b935050604061144687828801611271565b925050606085013567ffffffffffffffff81111561146357600080fd5b61146f87828801611286565b91505092959194509250565b6000806000806080858703121561149157600080fd5b600061149f878288016112b0565b94505060206114b0878288016112b0565b935050604085013567ffffffffffffffff8111156114cd57600080fd5b6114d987828801611286565b92505060606114ea87828801611271565b91505092959194509250565b6000611502838361150e565b60208301905092915050565b61151781611bd4565b82525050565b61152681611bd4565b82525050565b600061153782611b35565b6115418185611b4d565b935061154c83611b25565b8060005b8381101561157d57815161156488826114f6565b975061156f83611b40565b925050600181019050611550565b5085935050505092915050565b61159381611be6565b82525050565b6115a281611bf2565b82525050565b6115b96115b482611bf2565b611c90565b82525050565b6115c881611c33565b82525050565b60006115db601c83611b6f565b91507f19457468657265756d205369676e6564204d6573736167653a0a3332000000006000830152601c82019050919050565b600061161b602483611b5e565b91507f446f6e74206861766520656e6f7567682062616c616e636520746f207769746860008301527f64726177000000000000000000000000000000000000000000000000000000006020830152604082019050919050565b6000611681602683611b5e565b91507f4f776e61626c653a206e6577206f776e657220697320746865207a65726f206160008301527f64647265737300000000000000000000000000000000000000000000000000006020830152604082019050919050565b60006116e7601483611b5e565b91507f416c726561647920436c61696d205265776172640000000000000000000000006000830152602082019050919050565b6000611727602083611b5e565b91507f4f776e61626c653a2063616c6c6572206973206e6f7420746865206f776e65726000830152602082019050919050565b6000611767600983611b5e565b91507f4e6f7420416c6c6f7700000000000000000000000000000000000000000000006000830152602082019050919050565b60006117a7601883611b5e565b91507f696e76616c6964207369676e6174757265206c656e67746800000000000000006000830152602082019050919050565b60006117e7601883611b5e565b91507f45786365656420616d6f756e74206f6620706c617965727300000000000000006000830152602082019050919050565b61182381611c1c565b82525050565b61183281611c26565b82525050565b6000611843826115ce565b915061184f82846115a8565b60208201915081905092915050565b6000602082019050611873600083018461151d565b92915050565b600060408201905061188e600083018561151d565b61189b602083018461181a565b9392505050565b600060208201905081810360008301526118bc818461152c565b905092915050565b60006020820190506118d96000830184611599565b92915050565b60006060820190506118f46000830186611599565b6119016020830185611599565b61190e6040830184611829565b949350505050565b600060808201905061192b6000830187611599565b6119386020830186611829565b6119456040830185611599565b6119526060830184611599565b95945050505050565b600060208201905061197060008301846115bf565b92915050565b6000602082019050818103600083015261198f8161160e565b9050919050565b600060208201905081810360008301526119af81611674565b9050919050565b600060208201905081810360008301526119cf816116da565b9050919050565b600060208201905081810360008301526119ef8161171a565b9050919050565b60006020820190508181036000830152611a0f8161175a565b9050919050565b60006020820190508181036000830152611a2f8161179a565b9050919050565b60006020820190508181036000830152611a4f816117da565b9050919050565b6000604082019050611a6b600083018561181a565b611a78602083018461158a565b9392505050565b6000608082019050611a94600083018761181a565b611aa1602083018661181a565b611aae604083018561151d565b611abb606083018461181a565b95945050505050565b6000604051905081810181811067ffffffffffffffff82111715611aeb57611aea611cc9565b5b8060405250919050565b600067ffffffffffffffff821115611b1057611b0f611cc9565b5b601f19601f8301169050602081019050919050565b6000819050602082019050919050565b600081519050919050565b6000602082019050919050565b600082825260208201905092915050565b600082825260208201905092915050565b600081905092915050565b6000611b8582611c1c565b9150611b9083611c1c565b9250817fffffffffffffffffffffffffffffffffffffffffffffffffffffffffffffffff0483118215151615611bc957611bc8611c9a565b5b828202905092915050565b6000611bdf82611bfc565b9050919050565b60008115159050919050565b6000819050919050565b600073ffffffffffffffffffffffffffffffffffffffff82169050919050565b6000819050919050565b600060ff82169050919050565b6000611c3e82611c45565b9050919050565b6000611c5082611bfc565b9050919050565b82818337600083830152505050565b6000611c7182611c26565b915060ff821415611c8557611c84611c9a565b5b600182019050919050565b6000819050919050565b7f4e487b7100000000000000000000000000000000000000000000000000000000600052601160045260246000fd5b7f4e487b7100000000000000000000000000000000000000000000000000000000600052604160045260246000fd5b611d0181611bd4565b8114611d0c57600080fd5b50565b611d1881611be6565b8114611d2357600080fd5b50565b611d2f81611bf2565b8114611d3a57600080fd5b50565b611d4681611c1c565b8114611d5157600080fd5b5056fea2646970667358221220a7a405686623fe2fe7d6b5784685faca0c64edf7f8b197ac0817f887bb8fdb0864736f6c63430008000033",
  "linkReferences": {},
  "deployedLinkReferences": {}
}