{
  "_format": "hh-sol-artifact-1",
  "contractName": "Vault",
  "sourceName": "contracts/Vault.sol",
  "abi": [
    {
      "inputs": [
        {
          "internalType": "address",
          "name": "_PtitToken",
          "type": "address"
        }
      ],
      "stateMutability": "nonpayable",
      "type": "constructor"
    },
    {
      "anonymous": false,
      "inputs": [
        {
          "indexed": true,
          "internalType": "address",
          "name": "previousOwner",
          "type": "address"
        },
        {
          "indexed": true,
          "internalType": "address",
          "name": "newOwner",
          "type": "address"
        }
      ],
      "name": "OwnershipTransferred",
      "type": "event"
    },
    {
      "anonymous": false,
      "inputs": [
        {
          "indexed": false,
          "internalType": "address",
          "name": "player",
          "type": "address"
        },
        {
          "indexed": false,
          "internalType": "uint256",
          "name": "amount",
          "type": "uint256"
        }
      ],
      "name": "claimtoken",
      "type": "event"
    },
    {
      "anonymous": false,
      "inputs": [
        {
          "indexed": false,
          "internalType": "address",
          "name": "player",
          "type": "address"
        },
        {
          "indexed": false,
          "internalType": "uint256",
          "name": "amount",
          "type": "uint256"
        }
      ],
      "name": "deposittoken",
      "type": "event"
    },
    {
      "anonymous": false,
      "inputs": [
        {
          "indexed": false,
          "internalType": "address",
          "name": "faucet",
          "type": "address"
        },
        {
          "indexed": false,
          "internalType": "address",
          "name": "player",
          "type": "address"
        },
        {
          "indexed": false,
          "internalType": "uint256",
          "name": "amount",
          "type": "uint256"
        }
      ],
      "name": "faucet",
      "type": "event"
    },
    {
      "anonymous": false,
      "inputs": [
        {
          "indexed": false,
          "internalType": "address",
          "name": "player",
          "type": "address"
        },
        {
          "indexed": false,
          "internalType": "uint256",
          "name": "amount",
          "type": "uint256"
        }
      ],
      "name": "joingame",
      "type": "event"
    },
    {
      "anonymous": false,
      "inputs": [
        {
          "indexed": false,
          "internalType": "address",
          "name": "player",
          "type": "address"
        },
        {
          "indexed": false,
          "internalType": "uint256",
          "name": "amount",
          "type": "uint256"
        }
      ],
      "name": "withdrawtoken",
      "type": "event"
    },
    {
      "inputs": [],
      "name": "PtitToken",
      "outputs": [
        {
          "internalType": "contract PtitToken_Interface",
          "name": "",
          "type": "address"
        }
      ],
      "stateMutability": "view",
      "type": "function"
    },
    {
      "inputs": [
        {
          "internalType": "address",
          "name": "",
          "type": "address"
        }
      ],
      "name": "checks",
      "outputs": [
        {
          "internalType": "uint256",
          "name": "",
          "type": "uint256"
        }
      ],
      "stateMutability": "view",
      "type": "function"
    },
    {
      "inputs": [
        {
          "internalType": "address",
          "name": "_user",
          "type": "address"
        },
        {
          "internalType": "uint256",
          "name": "_amt",
          "type": "uint256"
        }
      ],
      "name": "claimToken",
      "outputs": [],
      "stateMutability": "nonpayable",
      "type": "function"
    },
    {
      "inputs": [
        {
          "internalType": "uint256",
          "name": "_amt",
          "type": "uint256"
        }
      ],
      "name": "depositToken",
      "outputs": [],
      "stateMutability": "nonpayable",
      "type": "function"
    },
    {
      "inputs": [
        {
          "internalType": "address",
          "name": "usr",
          "type": "address"
        }
      ],
      "name": "faucetClaim",
      "outputs": [],
      "stateMutability": "nonpayable",
      "type": "function"
    },
    {
      "inputs": [
        {
          "internalType": "address",
          "name": "admin",
          "type": "address"
        }
      ],
      "name": "grantPermit",
      "outputs": [],
      "stateMutability": "nonpayable",
      "type": "function"
    },
    {
      "inputs": [
        {
          "internalType": "address",
          "name": "_user",
          "type": "address"
        },
        {
          "internalType": "uint256",
          "name": "_amt",
          "type": "uint256"
        }
      ],
      "name": "joinGame",
      "outputs": [],
      "stateMutability": "nonpayable",
      "type": "function"
    },
    {
      "inputs": [],
      "name": "mintAmt",
      "outputs": [
        {
          "internalType": "uint256",
          "name": "",
          "type": "uint256"
        }
      ],
      "stateMutability": "view",
      "type": "function"
    },
    {
      "inputs": [],
      "name": "mintMax",
      "outputs": [
        {
          "internalType": "uint24",
          "name": "",
          "type": "uint24"
        }
      ],
      "stateMutability": "view",
      "type": "function"
    },
    {
      "inputs": [
        {
          "internalType": "address",
          "name": "",
          "type": "address"
        }
      ],
      "name": "mintTime",
      "outputs": [
        {
          "internalType": "uint24",
          "name": "",
          "type": "uint24"
        }
      ],
      "stateMutability": "view",
      "type": "function"
    },
    {
      "inputs": [],
      "name": "owner",
      "outputs": [
        {
          "internalType": "address",
          "name": "",
          "type": "address"
        }
      ],
      "stateMutability": "view",
      "type": "function"
    },
    {
      "inputs": [
        {
          "internalType": "address",
          "name": "",
          "type": "address"
        }
      ],
      "name": "playerBalance",
      "outputs": [
        {
          "internalType": "uint256",
          "name": "",
          "type": "uint256"
        }
      ],
      "stateMutability": "view",
      "type": "function"
    },
    {
      "inputs": [
        {
          "internalType": "address",
          "name": "_tokenAddress",
          "type": "address"
        },
        {
          "internalType": "address",
          "name": "_to",
          "type": "address"
        }
      ],
      "name": "removeOtherERC20Tokens",
      "outputs": [],
      "stateMutability": "nonpayable",
      "type": "function"
    },
    {
      "inputs": [],
      "name": "renounceOwnership",
      "outputs": [],
      "stateMutability": "nonpayable",
      "type": "function"
    },
    {
      "inputs": [
        {
          "internalType": "address",
          "name": "usr",
          "type": "address"
        }
      ],
      "name": "setBalance",
      "outputs": [],
      "stateMutability": "nonpayable",
      "type": "function"
    },
    {
      "inputs": [
        {
          "internalType": "uint256",
          "name": "_amt",
          "type": "uint256"
        }
      ],
      "name": "setMintAmount",
      "outputs": [],
      "stateMutability": "nonpayable",
      "type": "function"
    },
    {
      "inputs": [
        {
          "internalType": "uint24",
          "name": "_amt",
          "type": "uint24"
        }
      ],
      "name": "setMintTime",
      "outputs": [],
      "stateMutability": "nonpayable",
      "type": "function"
    },
    {
      "inputs": [
        {
          "internalType": "address",
          "name": "newOwner",
          "type": "address"
        }
      ],
      "name": "transferOwnership",
      "outputs": [],
      "stateMutability": "nonpayable",
      "type": "function"
    },
    {
      "inputs": [
        {
          "internalType": "address",
          "name": "admin",
          "type": "address"
        }
      ],
      "name": "unGrantPermit",
      "outputs": [],
      "stateMutability": "nonpayable",
      "type": "function"
    },
    {
      "inputs": [],
      "name": "viewPlayersBalance",
      "outputs": [
        {
          "internalType": "uint256",
          "name": "",
          "type": "uint256"
        }
      ],
      "stateMutability": "view",
      "type": "function"
    },
    {
      "inputs": [
        {
          "internalType": "uint256",
          "name": "_amt",
          "type": "uint256"
        }
      ],
      "name": "withdrawToken",
      "outputs": [
        {
          "internalType": "bool",
          "name": "",
          "type": "bool"
        }
      ],
      "stateMutability": "nonpayable",
      "type": "function"
    }
  ],
  "bytecode": "0x60806040523480156200001157600080fd5b5060405162001eb438038062001eb48339818101604052810190620000379190620001c7565b620000576200004b620000e460201b60201c565b620000ec60201b60201c565b6001600360003373ffffffffffffffffffffffffffffffffffffffff1673ffffffffffffffffffffffffffffffffffffffff1681526020019081526020016000208190555080600160006101000a81548173ffffffffffffffffffffffffffffffffffffffff021916908373ffffffffffffffffffffffffffffffffffffffff1602179055505062000241565b600033905090565b60008060009054906101000a900473ffffffffffffffffffffffffffffffffffffffff169050816000806101000a81548173ffffffffffffffffffffffffffffffffffffffff021916908373ffffffffffffffffffffffffffffffffffffffff1602179055508173ffffffffffffffffffffffffffffffffffffffff168173ffffffffffffffffffffffffffffffffffffffff167f8be0079c531659141344cd1fd0a4f28419497f9722a3daafe3b4186f6b6457e060405160405180910390a35050565b600081519050620001c18162000227565b92915050565b600060208284031215620001da57600080fd5b6000620001ea84828501620001b0565b91505092915050565b6000620002008262000207565b9050919050565b600073ffffffffffffffffffffffffffffffffffffffff82169050919050565b6200023281620001f3565b81146200023e57600080fd5b50565b611c6380620002516000396000f3fe608060405234801561001057600080fd5b50600436106101375760003560e01c806385771172116100b8578063b3cdb0dd1161007c578063b3cdb0dd14610312578063c7cd997f14610342578063cd7628271461035e578063d92f24ae1461037a578063f2fde38b14610398578063ff3afd8d146103b457610137565b806385771172146102845780638da5cb5b146102a0578063917c854d146102be5780639eda069f146102da578063b3890e7a146102f657610137565b80634e33f83b116100ff5780634e33f83b146101e057806350baa622146102105780636215be7714610240578063715018a61461025c57806380e01fbc1461026657610137565b806313a881b81461013c5780631698755f14610158578063257b68411461017457806327fff0db146101925780634d155561146101c2575b600080fd5b610156600480360381019061015191906114ca565b6103d0565b005b610172600480360381019061016d919061152f565b61049a565b005b61017c6105af565b6040516101899190611a38565b60405180910390f35b6101ac60048036038101906101a791906114ca565b6105f6565b6040516101b99190611a38565b60405180910390f35b6101ca61060e565b6040516101d79190611a1d565b60405180910390f35b6101fa60048036038101906101f591906114ca565b610623565b6040516102079190611a38565b60405180910390f35b61022a600480360381019061022591906115bd565b61063b565b6040516102379190611907565b60405180910390f35b61025a600480360381019061025591906115bd565b6107e6565b005b610264610909565b005b61026e610991565b60405161027b9190611922565b60405180910390f35b61029e600480360381019061029991906114ca565b6109b7565b005b6102a8610a81565b6040516102b5919061188c565b60405180910390f35b6102d860048036038101906102d391906114f3565b610aaa565b005b6102f460048036038101906102ef91906114ca565b610d0f565b005b610310600480360381019061030b91906114ca565b610d6a565b005b61032c600480360381019061032791906114ca565b610fba565b6040516103399190611a1d565b60405180910390f35b61035c600480360381019061035791906115bd565b610fdc565b005b6103786004803603810190610373919061152f565b611062565b005b6103826111f9565b60405161038f9190611a38565b60405180910390f35b6103b260048036038101906103ad91906114ca565b6111ff565b005b6103ce60048036038101906103c99190611594565b6112f7565b005b6001600360003373ffffffffffffffffffffffffffffffffffffffff1673ffffffffffffffffffffffffffffffffffffffff1681526020019081526020016000205414610452576040517f08c379a00000000000000000000000000000000000000000000000000000000081526004016104499061199d565b60405180910390fd5b6000600360008373ffffffffffffffffffffffffffffffffffffffff1673ffffffffffffffffffffffffffffffffffffffff1681526020019081526020016000208190555050565b6001600360003373ffffffffffffffffffffffffffffffffffffffff1673ffffffffffffffffffffffffffffffffffffffff168152602001908152602001600020541461051c576040517f08c379a00000000000000000000000000000000000000000000000000000000081526004016105139061199d565b60405180910390fd5b80600560008473ffffffffffffffffffffffffffffffffffffffff1673ffffffffffffffffffffffffffffffffffffffff168152602001908152602001600020600082825461056b9190611a9d565b925050819055507fc86145301c95fea89c264578560f73dffb2cfdd1ef1db3d77bc8aedd246cdd2182826040516105a39291906118de565b60405180910390a15050565b6000600560003373ffffffffffffffffffffffffffffffffffffffff1673ffffffffffffffffffffffffffffffffffffffff16815260200190815260200160002054905090565b60036020528060005260406000206000915090505481565b600160149054906101000a900462ffffff1681565b60056020528060005260406000206000915090505481565b600081600560003373ffffffffffffffffffffffffffffffffffffffff1673ffffffffffffffffffffffffffffffffffffffff1681526020019081526020016000205410156106bf576040517f08c379a00000000000000000000000000000000000000000000000000000000081526004016106b69061193d565b60405180910390fd5b81600560003373ffffffffffffffffffffffffffffffffffffffff1673ffffffffffffffffffffffffffffffffffffffff168152602001908152602001600020600082825461070e9190611af3565b92505081905550600160009054906101000a900473ffffffffffffffffffffffffffffffffffffffff1673ffffffffffffffffffffffffffffffffffffffff1663a9059cbb33846040518363ffffffff1660e01b81526004016107729291906118de565b600060405180830381600087803b15801561078c57600080fd5b505af11580156107a0573d6000803e3d6000fd5b505050507f8cd40c9de7949421153e6bc327513772c7275149cc0bafc2a73c8b5c9b70bf1a33836040516107d59291906118de565b60405180910390a160019050919050565b600160009054906101000a900473ffffffffffffffffffffffffffffffffffffffff1673ffffffffffffffffffffffffffffffffffffffff166323b872dd3330846040518463ffffffff1660e01b8152600401610845939291906118a7565b600060405180830381600087803b15801561085f57600080fd5b505af1158015610873573d6000803e3d6000fd5b5050505080600560003373ffffffffffffffffffffffffffffffffffffffff1673ffffffffffffffffffffffffffffffffffffffff16815260200190815260200160002060008282546108c69190611a9d565b925050819055507f7214ac22d875644a3dd1724135893128151bbc9cef106ed808462990a8b5263033826040516108fe9291906118de565b60405180910390a150565b610911611395565b73ffffffffffffffffffffffffffffffffffffffff1661092f610a81565b73ffffffffffffffffffffffffffffffffffffffff1614610985576040517f08c379a000000000000000000000000000000000000000000000000000000000815260040161097c9061197d565b60405180910390fd5b61098f600061139d565b565b600160009054906101000a900473ffffffffffffffffffffffffffffffffffffffff1681565b6001600360003373ffffffffffffffffffffffffffffffffffffffff1673ffffffffffffffffffffffffffffffffffffffff1681526020019081526020016000205414610a39576040517f08c379a0000000000000000000000000000000000000000000000000000000008152600401610a309061199d565b60405180910390fd5b6001600360008373ffffffffffffffffffffffffffffffffffffffff1673ffffffffffffffffffffffffffffffffffffffff1681526020019081526020016000208190555050565b60008060009054906101000a900473ffffffffffffffffffffffffffffffffffffffff16905090565b610ab2611395565b73ffffffffffffffffffffffffffffffffffffffff16610ad0610a81565b73ffffffffffffffffffffffffffffffffffffffff1614610b26576040517f08c379a0000000000000000000000000000000000000000000000000000000008152600401610b1d9061197d565b60405180910390fd5b600160009054906101000a900473ffffffffffffffffffffffffffffffffffffffff1673ffffffffffffffffffffffffffffffffffffffff168273ffffffffffffffffffffffffffffffffffffffff161415610bb7576040517f08c379a0000000000000000000000000000000000000000000000000000000008152600401610bae906119bd565b60405180910390fd5b8173ffffffffffffffffffffffffffffffffffffffff1663a9059cbb828473ffffffffffffffffffffffffffffffffffffffff166370a08231306040518263ffffffff1660e01b8152600401610c0d919061188c565b60206040518083038186803b158015610c2557600080fd5b505afa158015610c39573d6000803e3d6000fd5b505050506040513d601f19601f82011682018060405250810190610c5d91906115e6565b6040518363ffffffff1660e01b8152600401610c7a9291906118de565b602060405180830381600087803b158015610c9457600080fd5b505af1158015610ca8573d6000803e3d6000fd5b505050506040513d601f19601f82011682018060405250810190610ccc919061156b565b610d0b576040517f08c379a0000000000000000000000000000000000000000000000000000000008152600401610d02906119dd565b60405180910390fd5b5050565b6103e8600560008373ffffffffffffffffffffffffffffffffffffffff1673ffffffffffffffffffffffffffffffffffffffff1681526020019081526020016000206000828254610d609190611a9d565b9250508190555050565b600160149054906101000a900462ffffff1662ffffff16600460003373ffffffffffffffffffffffffffffffffffffffff1673ffffffffffffffffffffffffffffffffffffffff16815260200190815260200160002060009054906101000a900462ffffff1662ffffff161115610e16576040517f08c379a0000000000000000000000000000000000000000000000000000000008152600401610e0d906119fd565b60405180910390fd5b6001600460003373ffffffffffffffffffffffffffffffffffffffff1673ffffffffffffffffffffffffffffffffffffffff16815260200190815260200160002060008282829054906101000a900462ffffff16610e749190611a64565b92506101000a81548162ffffff021916908362ffffff160217905550600160009054906101000a900473ffffffffffffffffffffffffffffffffffffffff1673ffffffffffffffffffffffffffffffffffffffff166340c10f19306002546040518363ffffffff1660e01b8152600401610eef9291906118de565b600060405180830381600087803b158015610f0957600080fd5b505af1158015610f1d573d6000803e3d6000fd5b50505050600254600560008373ffffffffffffffffffffffffffffffffffffffff1673ffffffffffffffffffffffffffffffffffffffff1681526020019081526020016000206000828254610f729190611a9d565b925050819055507fcdb5afdd0fed626658e862e205737b518b3246f70452c809d18fb682f6283a08600082600254604051610faf939291906118a7565b60405180910390a150565b60046020528060005260406000206000915054906101000a900462ffffff1681565b610fe4611395565b73ffffffffffffffffffffffffffffffffffffffff16611002610a81565b73ffffffffffffffffffffffffffffffffffffffff1614611058576040517f08c379a000000000000000000000000000000000000000000000000000000000815260040161104f9061197d565b60405180910390fd5b8060028190555050565b6001600360003373ffffffffffffffffffffffffffffffffffffffff1673ffffffffffffffffffffffffffffffffffffffff16815260200190815260200160002054146110e4576040517f08c379a00000000000000000000000000000000000000000000000000000000081526004016110db9061199d565b60405180910390fd5b80600560008473ffffffffffffffffffffffffffffffffffffffff1673ffffffffffffffffffffffffffffffffffffffff168152602001908152602001600020541015611166576040517f08c379a000000000000000000000000000000000000000000000000000000000815260040161115d9061193d565b60405180910390fd5b80600560008473ffffffffffffffffffffffffffffffffffffffff1673ffffffffffffffffffffffffffffffffffffffff16815260200190815260200160002060008282546111b59190611af3565b925050819055507f72d8746e85de79cf8fe0b62c9626c09cfbc90c693d8aff8c55275a291027cfc282826040516111ed9291906118de565b60405180910390a15050565b60025481565b611207611395565b73ffffffffffffffffffffffffffffffffffffffff16611225610a81565b73ffffffffffffffffffffffffffffffffffffffff161461127b576040517f08c379a00000000000000000000000000000000000000000000000000000000081526004016112729061197d565b60405180910390fd5b600073ffffffffffffffffffffffffffffffffffffffff168173ffffffffffffffffffffffffffffffffffffffff1614156112eb576040517f08c379a00000000000000000000000000000000000000000000000000000000081526004016112e29061195d565b60405180910390fd5b6112f48161139d565b50565b6112ff611395565b73ffffffffffffffffffffffffffffffffffffffff1661131d610a81565b73ffffffffffffffffffffffffffffffffffffffff1614611373576040517f08c379a000000000000000000000000000000000000000000000000000000000815260040161136a9061197d565b60405180910390fd5b80600160146101000a81548162ffffff021916908362ffffff16021790555050565b600033905090565b60008060009054906101000a900473ffffffffffffffffffffffffffffffffffffffff169050816000806101000a81548173ffffffffffffffffffffffffffffffffffffffff021916908373ffffffffffffffffffffffffffffffffffffffff1602179055508173ffffffffffffffffffffffffffffffffffffffff168173ffffffffffffffffffffffffffffffffffffffff167f8be0079c531659141344cd1fd0a4f28419497f9722a3daafe3b4186f6b6457e060405160405180910390a35050565b60008135905061147081611bd1565b92915050565b60008151905061148581611be8565b92915050565b60008135905061149a81611bff565b92915050565b6000813590506114af81611c16565b92915050565b6000815190506114c481611c16565b92915050565b6000602082840312156114dc57600080fd5b60006114ea84828501611461565b91505092915050565b6000806040838503121561150657600080fd5b600061151485828601611461565b925050602061152585828601611461565b9150509250929050565b6000806040838503121561154257600080fd5b600061155085828601611461565b9250506020611561858286016114a0565b9150509250929050565b60006020828403121561157d57600080fd5b600061158b84828501611476565b91505092915050565b6000602082840312156115a657600080fd5b60006115b48482850161148b565b91505092915050565b6000602082840312156115cf57600080fd5b60006115dd848285016114a0565b91505092915050565b6000602082840312156115f857600080fd5b6000611606848285016114b5565b91505092915050565b61161881611b27565b82525050565b61162781611b39565b82525050565b61163681611b7e565b82525050565b6000611649602483611a53565b91507f446f6e74206861766520656e6f7567682062616c616e636520746f207769746860008301527f64726177000000000000000000000000000000000000000000000000000000006020830152604082019050919050565b60006116af602683611a53565b91507f4f776e61626c653a206e6577206f776e657220697320746865207a65726f206160008301527f64647265737300000000000000000000000000000000000000000000000000006020830152604082019050919050565b6000611715602083611a53565b91507f4f776e61626c653a2063616c6c6572206973206e6f7420746865206f776e65726000830152602082019050919050565b6000611755601483611a53565b91507f7661756c742f6e6f742d617574686f72697a65640000000000000000000000006000830152602082019050919050565b6000611795602f83611a53565b91507f546f6b656e20416464726573732068617320746f20626520646966662074686160008301527f6e207468652050746974546f6b656e00000000000000000000000000000000006020830152604082019050919050565b60006117fb601b83611a53565b91507f455243323020546f6b656e207472616e73666572206661696c656400000000006000830152602082019050919050565b600061183b601d83611a53565b91507f45786365656420416d6f756e74204f66204d696e74696e672054696d650000006000830152602082019050919050565b61187781611b65565b82525050565b61188681611b74565b82525050565b60006020820190506118a1600083018461160f565b92915050565b60006060820190506118bc600083018661160f565b6118c9602083018561160f565b6118d6604083018461187d565b949350505050565b60006040820190506118f3600083018561160f565b611900602083018461187d565b9392505050565b600060208201905061191c600083018461161e565b92915050565b6000602082019050611937600083018461162d565b92915050565b600060208201905081810360008301526119568161163c565b9050919050565b60006020820190508181036000830152611976816116a2565b9050919050565b6000602082019050818103600083015261199681611708565b9050919050565b600060208201905081810360008301526119b681611748565b9050919050565b600060208201905081810360008301526119d681611788565b9050919050565b600060208201905081810360008301526119f6816117ee565b9050919050565b60006020820190508181036000830152611a168161182e565b9050919050565b6000602082019050611a32600083018461186e565b92915050565b6000602082019050611a4d600083018461187d565b92915050565b600082825260208201905092915050565b6000611a6f82611b65565b9150611a7a83611b65565b92508262ffffff03821115611a9257611a91611ba2565b5b828201905092915050565b6000611aa882611b74565b9150611ab383611b74565b9250827fffffffffffffffffffffffffffffffffffffffffffffffffffffffffffffffff03821115611ae857611ae7611ba2565b5b828201905092915050565b6000611afe82611b74565b9150611b0983611b74565b925082821015611b1c57611b1b611ba2565b5b828203905092915050565b6000611b3282611b45565b9050919050565b60008115159050919050565b600073ffffffffffffffffffffffffffffffffffffffff82169050919050565b600062ffffff82169050919050565b6000819050919050565b6000611b8982611b90565b9050919050565b6000611b9b82611b45565b9050919050565b7f4e487b7100000000000000000000000000000000000000000000000000000000600052601160045260246000fd5b611bda81611b27565b8114611be557600080fd5b50565b611bf181611b39565b8114611bfc57600080fd5b50565b611c0881611b65565b8114611c1357600080fd5b50565b611c1f81611b74565b8114611c2a57600080fd5b5056fea26469706673582212202ffed30436e333e39102875c0bfeed3890ced7169171fceb9f5be8adb8fb74fe64736f6c63430008000033",
  "linkReferences": {},
  "deployedLinkReferences": {}
}